{
  "contractName": "IoTEdgeContract",
  "abi": [
    {
      "constant": true,
      "inputs": [],
      "name": "getState",
      "outputs": [
        {
          "name": "state",
          "type": "uint8"
        }
      ],
      "payable": false,
      "stateMutability": "view",
      "type": "function"
    },
    {
      "constant": false,
      "inputs": [
        {
          "name": "deviceIdentifier",
          "type": "string"
        },
        {
          "name": "data",
          "type": "string"
        }
      ],
      "name": "record",
      "outputs": [
        {
          "name": "success",
          "type": "bool"
        }
      ],
      "payable": false,
      "stateMutability": "nonpayable",
      "type": "function"
    },
    {
      "constant": false,
      "inputs": [
        {
          "name": "data",
          "type": "string"
        }
      ],
      "name": "settle",
      "outputs": [
        {
          "name": "success",
          "type": "bool"
        }
      ],
      "payable": false,
      "stateMutability": "nonpayable",
      "type": "function"
    },
    {
      "constant": false,
      "inputs": [
        {
          "name": "data",
          "type": "string"
        }
      ],
      "name": "verify",
      "outputs": [
        {
          "name": "success",
          "type": "bool"
        }
      ],
      "payable": false,
      "stateMutability": "nonpayable",
      "type": "function"
    }
  ],
  "bytecode": "0x6060604052341561000f57600080fd5b6104d68061001e6000396000f300606060405260043610610062576000357c0100000000000000000000000000000000000000000000000000000000900463ffffffff1680631865c57d14610067578063470bb62b14610096578063baf312eb1461014e578063bb9c6c3e146101c3575b600080fd5b341561007257600080fd5b61007a610238565b604051808260ff1660ff16815260200191505060405180910390f35b34156100a157600080fd5b610134600480803590602001908201803590602001908080601f0160208091040260200160405190810160405280939291908181526020018383808284378201915050505050509190803590602001908201803590602001908080601f0160208091040260200160405190810160405280939291908181526020018383808284378201915050505050509190505061025a565b604051808215151515815260200191505060405180910390f35b341561015957600080fd5b6101a9600480803590602001908201803590602001908080601f016020809104026020016040519081016040528093929190818152602001838380828437820191505050505050919050506102f8565b604051808215151515815260200191505060405180910390f35b34156101ce57600080fd5b61021e600480803590602001908201803590602001908080601f0160208091040260200160405190810160405280939291908181526020018383808284378201915050505050509190505061037f565b604051808215151515815260200191505060405180910390f35b6000600160009054906101000a900460ff16600281111561025557fe5b905090565b60008260009080519060200190610272929190610405565b508160029080519060200190610289929190610405565b50336001806101000a81548173ffffffffffffffffffffffffffffffffffffffff021916908373ffffffffffffffffffffffffffffffffffffffff1602179055506000600160006101000a81548160ff021916908360028111156102e957fe5b02179055506001905092915050565b60008160069080519060200190610310929190610405565b5033600560006101000a81548173ffffffffffffffffffffffffffffffffffffffff021916908373ffffffffffffffffffffffffffffffffffffffff1602179055506002600160006101000a81548160ff0219169083600281111561037157fe5b021790555060019050919050565b60008160049080519060200190610397929190610405565b5033600360006101000a81548173ffffffffffffffffffffffffffffffffffffffff021916908373ffffffffffffffffffffffffffffffffffffffff16021790555060018060006101000a81548160ff021916908360028111156103f757fe5b021790555060019050919050565b828054600181600116156101000203166002900490600052602060002090601f016020900481019282601f1061044657805160ff1916838001178555610474565b82800160010185558215610474579182015b82811115610473578251825591602001919060010190610458565b5b5090506104819190610485565b5090565b6104a791905b808211156104a357600081600090555060010161048b565b5090565b905600a165627a7a72305820166938712031cd12bdad489959005764e6a23b15f79999d4acd0306b092af4fb0029",
  "source": "pragma solidity ^0.4.17;\r\n\r\ncontract IoTEdgeContract {\r\n\r\n    enum States {Recorded, Verified, Settled}\r\n\r\n    string deviceId;\r\n    States currentState;\r\n\r\n    address recorder;\r\n    string recordData;\r\n    \r\n    address verifier;\r\n    string verifiedData;\r\n    \r\n    address settler;\r\n    string setteledData;\r\n    \r\n    function record(string deviceIdentifier, string data) public returns (bool success) {\r\n        deviceId = deviceIdentifier;\r\n        recordData = data;\r\n        recorder = msg.sender;\r\n        currentState = States.Recorded;\r\n        return true;\r\n    }\r\n\r\n    function verify(string data) public returns (bool success) {\r\n        verifiedData = data;\r\n        verifier = msg.sender;\r\n        currentState = States.Verified;\r\n        return true;\r\n    }\r\n\r\n    function settle(string data) public returns (bool success) {\r\n        setteledData = data;\r\n        settler = msg.sender;\r\n        currentState = States.Settled;\r\n        return true;\r\n    }\r\n\r\n    function getState() public view returns (uint8 state) {\r\n        return uint8(currentState);\r\n    }\r\n}",
  "sourcePath": "C:\\repos\\IoTTrials\\blockchain-iot-edge\\SmartContract\\contracts\\IoTEdgeContract.sol",
  "compiler": {
    "name": "solc",
    "version": "0.4.18+commit.9cf6e910.Emscripten.clang"
  },
  "schemaVersion": "1.0.1",
  "updatedAt": "2018-04-22T20:45:26.540Z"
}