{
  "contractName": "IoTEdgeContract",
  "abi": [
    {
      "constant": false,
      "inputs": [
        {
          "name": "deviceIdentifier",
          "type": "string"
        },
        {
          "name": "data",
          "type": "string"
        }
      ],
      "name": "record",
      "outputs": [
        {
          "name": "success",
          "type": "bool"
        }
      ],
      "payable": false,
      "stateMutability": "nonpayable",
      "type": "function"
    },
    {
      "constant": false,
      "inputs": [
        {
          "name": "data",
          "type": "string"
        }
      ],
      "name": "verify",
      "outputs": [
        {
          "name": "success",
          "type": "bool"
        }
      ],
      "payable": false,
      "stateMutability": "nonpayable",
      "type": "function"
    },
    {
      "constant": false,
      "inputs": [
        {
          "name": "data",
          "type": "string"
        }
      ],
      "name": "settle",
      "outputs": [
        {
          "name": "success",
          "type": "bool"
        }
      ],
      "payable": false,
      "stateMutability": "nonpayable",
      "type": "function"
    },
    {
      "constant": true,
      "inputs": [],
      "name": "getState",
      "outputs": [
        {
          "name": "state",
          "type": "uint8"
        }
      ],
      "payable": false,
      "stateMutability": "view",
      "type": "function"
    }
  ],
  "bytecode": "0x608060405234801561001057600080fd5b506104ff806100206000396000f300608060405260043610610062576000357c0100000000000000000000000000000000000000000000000000000000900463ffffffff1680631865c57d14610067578063470bb62b14610098578063baf312eb1461015f578063bb9c6c3e146101e0575b600080fd5b34801561007357600080fd5b5061007c610261565b604051808260ff1660ff16815260200191505060405180910390f35b3480156100a457600080fd5b50610145600480360381019080803590602001908201803590602001908080601f0160208091040260200160405190810160405280939291908181526020018383808284378201915050505050509192919290803590602001908201803590602001908080601f0160208091040260200160405190810160405280939291908181526020018383808284378201915050505050509192919290505050610283565b604051808215151515815260200191505060405180910390f35b34801561016b57600080fd5b506101c6600480360381019080803590602001908201803590602001908080601f0160208091040260200160405190810160405280939291908181526020018383808284378201915050505050509192919290505050610321565b604051808215151515815260200191505060405180910390f35b3480156101ec57600080fd5b50610247600480360381019080803590602001908201803590602001908080601f01602080910402602001604051908101604052809392919081815260200183838082843782019150505050505091929192905050506103a8565b604051808215151515815260200191505060405180910390f35b6000600160009054906101000a900460ff16600281111561027e57fe5b905090565b6000826000908051906020019061029b92919061042e565b5081600290805190602001906102b292919061042e565b50336001806101000a81548173ffffffffffffffffffffffffffffffffffffffff021916908373ffffffffffffffffffffffffffffffffffffffff1602179055506000600160006101000a81548160ff0219169083600281111561031257fe5b02179055506001905092915050565b6000816006908051906020019061033992919061042e565b5033600560006101000a81548173ffffffffffffffffffffffffffffffffffffffff021916908373ffffffffffffffffffffffffffffffffffffffff1602179055506002600160006101000a81548160ff0219169083600281111561039a57fe5b021790555060019050919050565b600081600490805190602001906103c092919061042e565b5033600360006101000a81548173ffffffffffffffffffffffffffffffffffffffff021916908373ffffffffffffffffffffffffffffffffffffffff16021790555060018060006101000a81548160ff0219169083600281111561042057fe5b021790555060019050919050565b828054600181600116156101000203166002900490600052602060002090601f016020900481019282601f1061046f57805160ff191683800117855561049d565b8280016001018555821561049d579182015b8281111561049c578251825591602001919060010190610481565b5b5090506104aa91906104ae565b5090565b6104d091905b808211156104cc5760008160009055506001016104b4565b5090565b905600a165627a7a723058206af97386fb73a6617253b316662759a54091983673b0c131373b89af6e2d03b30029",
  "source": "pragma solidity ^0.4.22;\n\ncontract IoTEdgeContract {\n\n    enum States {Recorded, Verified, Settled}\n\n    string deviceId;\n    States currentState;\n\n    address recorder;\n    string recordData;\n    \n    address verifier;\n    string verifiedData;\n    \n    address settler;\n    string setteledData;\n    \n    function record(string deviceIdentifier, string data) public returns (bool success) {\n        deviceId = deviceIdentifier;\n        recordData = data;\n        recorder = msg.sender;\n        currentState = States.Recorded;\n        return true;\n    }\n\n    function verify(string data) public returns (bool success) {\n        verifiedData = data;\n        verifier = msg.sender;\n        currentState = States.Verified;\n        return true;\n    }\n\n    function settle(string data) public returns (bool success) {\n        setteledData = data;\n        settler = msg.sender;\n        currentState = States.Settled;\n        return true;\n    }\n\n    function getState() public view returns (uint8 state) {\n        return uint8(currentState);\n    }\n}",
  "sourcePath": "C:\\repos\\blockchain-iot-edge\\smartcontracts\\contracts\\IoTEdgeContract.sol",
  "compiler": {
    "name": "solc",
    "version": "0.4.24+commit.e67f0147.Emscripten.clang"
  },
  "schemaVersion": "2.0.1",
  "updatedAt": "2018-07-13T01:25:55.875Z"
}