{
  "contractName": "IoTEdgeContract",
  "abi": [
    {
      "inputs": [
        {
          "name": "deviceIdentifier",
          "type": "string"
        },
        {
          "name": "data",
          "type": "string"
        }
      ],
      "payable": false,
      "stateMutability": "nonpayable",
      "type": "constructor"
    },
    {
      "constant": false,
      "inputs": [
        {
          "name": "data",
          "type": "string"
        }
      ],
      "name": "verify",
      "outputs": [
        {
          "name": "success",
          "type": "bool"
        }
      ],
      "payable": false,
      "stateMutability": "nonpayable",
      "type": "function"
    },
    {
      "constant": false,
      "inputs": [
        {
          "name": "data",
          "type": "string"
        }
      ],
      "name": "settle",
      "outputs": [
        {
          "name": "success",
          "type": "bool"
        }
      ],
      "payable": false,
      "stateMutability": "nonpayable",
      "type": "function"
    },
    {
      "constant": true,
      "inputs": [],
      "name": "getState",
      "outputs": [
        {
          "name": "state",
          "type": "uint8"
        }
      ],
      "payable": false,
      "stateMutability": "view",
      "type": "function"
    }
  ],
  "bytecode": "0x608060405234801561001057600080fd5b50604051610519380380610519833981018060405281019080805182019291906020018051820192919050505081600090805190602001906100539291906100d6565b50806002908051906020019061006a9291906100d6565b50336001806101000a81548173ffffffffffffffffffffffffffffffffffffffff021916908373ffffffffffffffffffffffffffffffffffffffff1602179055506000600160006101000a81548160ff021916908360028111156100ca57fe5b0217905550505061017b565b828054600181600116156101000203166002900490600052602060002090601f016020900481019282601f1061011757805160ff1916838001178555610145565b82800160010185558215610145579182015b82811115610144578251825591602001919060010190610129565b5b5090506101529190610156565b5090565b61017891905b8082111561017457600081600090555060010161015c565b5090565b90565b61038f8061018a6000396000f300608060405260043610610057576000357c0100000000000000000000000000000000000000000000000000000000900463ffffffff1680631865c57d1461005c578063baf312eb1461008d578063bb9c6c3e1461010e575b600080fd5b34801561006857600080fd5b5061007161018f565b604051808260ff1660ff16815260200191505060405180910390f35b34801561009957600080fd5b506100f4600480360381019080803590602001908201803590602001908080601f01602080910402602001604051908101604052809392919081815260200183838082843782019150505050505091929192905050506101b1565b604051808215151515815260200191505060405180910390f35b34801561011a57600080fd5b50610175600480360381019080803590602001908201803590602001908080601f0160208091040260200160405190810160405280939291908181526020018383808284378201915050505050509192919290505050610238565b604051808215151515815260200191505060405180910390f35b6000600160009054906101000a900460ff1660028111156101ac57fe5b905090565b600081600690805190602001906101c99291906102be565b5033600560006101000a81548173ffffffffffffffffffffffffffffffffffffffff021916908373ffffffffffffffffffffffffffffffffffffffff1602179055506002600160006101000a81548160ff0219169083600281111561022a57fe5b021790555060019050919050565b600081600490805190602001906102509291906102be565b5033600360006101000a81548173ffffffffffffffffffffffffffffffffffffffff021916908373ffffffffffffffffffffffffffffffffffffffff16021790555060018060006101000a81548160ff021916908360028111156102b057fe5b021790555060019050919050565b828054600181600116156101000203166002900490600052602060002090601f016020900481019282601f106102ff57805160ff191683800117855561032d565b8280016001018555821561032d579182015b8281111561032c578251825591602001919060010190610311565b5b50905061033a919061033e565b5090565b61036091905b8082111561035c576000816000905550600101610344565b5090565b905600a165627a7a7230582007e7a62eac3ecaeea3e7fbe30781a7e3f71eb8bdb80e7ac83a13c71797dcbcf60029",
  "source": "pragma solidity ^0.4.22;\n\ncontract IoTEdgeContract {\n\n    enum States {Recorded, Verified, Settled}\n\n    string deviceId;\n    States currentState;\n\n    address recorder;\n    string recordData;\n    \n    address verifier;\n    string verifiedData;\n    \n    address settler;\n    string setteledData;\n    \n    constructor(string deviceIdentifier, string data) public {\n        deviceId = deviceIdentifier;\n        recordData = data;\n        recorder = msg.sender;\n        currentState = States.Recorded;\n    }\n\n    function verify(string data) public returns (bool success) {\n        verifiedData = data;\n        verifier = msg.sender;\n        currentState = States.Verified;\n        return true;\n    }\n\n    function settle(string data) public returns (bool success) {\n        setteledData = data;\n        settler = msg.sender;\n        currentState = States.Settled;\n        return true;\n    }\n\n    function getState() public view returns (uint8 state) {\n        return uint8(currentState);\n    }\n}",
  "sourcePath": "C:\\repos\\blockchain-iot-edge\\smartcontracts\\contracts\\IoTEdgeContract.sol",
  "compiler": {
    "name": "solc",
    "version": "0.4.24+commit.e67f0147.Emscripten.clang"
  },
  "schemaVersion": "2.0.1",
  "updatedAt": "2018-07-26T17:51:55.378Z"
}